:020000040800F2
:10000000580900205D0100083D1B0008750A000822
:1000100000000000000000000000000000000000E0
:100020000000000000000000000000007D1D00082E
:100030000000000000000000F51C00089F1D0008E3
:100040006F010008000000006F0100086F01000848
:100050006F0100086F0100086F0100086F010008C0
:10006000000000006F0100086F0100086F01000828
:100070006F0100086F0100086F0100080000000018
:100080006F0100086F0100086F0100086F01000890
:100090006F0100086F0100086F0100086F01000880
:1000A0006F0100086F0100086F010008631E00085F
:1000B000651E0008671E000800F002F800F03EF818
:1000C0000CA030C8083824182D18A246671EAB466D
:1000D00054465D46AC4201D100F030F87E460F3EFA
:1000E0000FCCB6460126334200D0FB1AA246AB46DF
:1000F000334318470822000028220000103A02D398
:1001000078C878C1FAD8520701D330C830C101D5B8
:1001100004680C60704700000023002400250026BE
:10012000103A01D378C1FBD8520700D330C100D5B3
:100130000B6070471FB51FBD10B510BD00F0FAF879
:100140001146FFF7F7FF01F04BFF00F012F903B47F
:10015000FFF7F2FF03BC00F019F9000007488047E1
:1001600007480047FEE7FEE7FEE7FEE7FEE7FEE79B
:1001700004480549054A064B70470000611E000807
:10018000B900000858030020580900205805002035
:100190005805002001E004C0091F0429FBD28B0789
:1001A00001D50280801CC90700D002707047002969
:1001B0000BD0C30702D00270401C491E022904D391
:1001C000830702D50280801C891EE3E70022EEE748
:1001D0000022DFE7002203098B422CD3030A8B4263
:1001E00011D300239C464EE003460B433CD400222F
:1001F00043088B4231D303098B421CD3030A8B4241
:1002000001D394463FE0C3098B4201D3CB01C01A0E
:10021000524183098B4201D38B01C01A52414309D9
:100220008B4201D34B01C01A524103098B4201D3C7
:100230000B01C01A5241C3088B4201D3CB00C01A34
:10024000524183088B4201D38B00C01A52414308AC
:100250008B4201D34B00C01A5241411A00D20146D1
:100260005241104670475DE0CA0F00D0494203106A
:1002700000D34042534000229C4603098B422DD3B9
:10028000030A8B4212D3FC22890112BA030A8B4261
:100290000CD3890192118B4208D3890192118B42B0
:1002A00004D389013AD0921100E08909C3098B4235
:1002B00001D3CB01C01A524183098B4201D38B0178
:1002C000C01A524143098B4201D34B01C01A52411B
:1002D00003098B4201D30B01C01A5241C3088B4260
:1002E00001D3CB00C01A524183088B4201D38B004B
:1002F000C01A5241D9D243088B4201D34B00C01AD5
:100300005241411A00D20146634652415B101046E9
:1003100001D34042002B00D54942704763465B1031
:1003200000D3404201B50020C046C04602BD704720
:1003300070477047754600F025F8AE4605006946DF
:100340005346C008C000854618B020B5FFF710FF1F
:1003500060BC00274908B6460026C0C5C0C5C0C558
:10036000C0C5C0C5C0C5C0C5C0C5403D49008D465B
:10037000704710B50446C046C0462046FFF7E7FE6A
:1003800010BD000000487047F80200200149182005
:10039000ABBEFEE726000200704772B6FEE7000023
:1003A000F8B5002303240125BAE02E469E40B4464A
:1003B00032407CD00E79B607B60F012E01D0022E46
:1003C00017D186682746B6465E00B7400096764647
:1003D000BE43B646CF68009EB74076463743876037
:1003E00046686746BE430F79FF06FF0F9F403743BD
:1003F00047600E79F643B6070ED0C6682746B44666
:100400005E00B646B7406646BE43B4468F68764641
:10041000B74066463743C7600E79B607B60F022E5F
:1004200014D1DE08B60036180096366A5F07B44667
:10043000FE0E0F27B646B7406646BE43B4460F6968
:100440007646B74066463743009E376206682746C1
:10045000B4465E00B646B7406646BE430F79B44622
:10046000BF07BF0F7646B7406646374307604E6802
:10047000B603B60F53D02D4FBE692E43BE61BE6981
:100480009F08F607F60F2A4EBF00BE190096B66801
:100490000F27B4469E07360FB646B7406646BE43A2
:1004A0000927FF06B446B84202D1002710E036E023
:1004B000204FB84201D101270AE01F4FB84201D1B5
:1004C000022705E01D4FB84201D1032700E00527B0
:1004D0007646B74066463743009EB760184EB6680A
:1004E0004F689643FF0200D51643154FBE60FE6865
:1004F0004F689643BF0200D51643114FFE607E68D9
:100500004F689643BF0300D516430D4F7E603E688B
:100510004F689643FF0300D51643094A16605B1CDB
:100520000A681646DE4000D03FE7F8BD00100240E2
:10053000000001400004004800080048000C00488A
:10054000000401400148806870470000540000200A
:1005500070B5024640325378202B1CD11378012B02
:1005600019D00123137024245470046825689D4316
:100570002560046825681E03B54325600468256866
:100580000D43256000680168194301602020507008
:100590000020107070BD022070BD70B50246403260
:1005A0005378202B1BD11378012B18D00124147001
:1005B0002423537003681D68A5431D6005682B68DC
:1005C0000F263602B3430902194329600068016807
:1005D00021430160202050700020107070BD022067
:1005E00070BD000070B5040006D02546403568781F
:1005F0000026002802D005E0012070BD2E702046A4
:1006000000F09CF9242068702068016849084900BE
:1006100001600F216068090688432168086121682C
:100620008A680120C00382438A60E1680129A168C9
:100630002FD0212292021143226891600121E268A9
:10064000C902022A2268536825D08B43536021686F
:100650004A68124B1A434A602168CA688243CA60DA
:10066000616920690843A169090208432168C860DB
:10067000216AE06908432168086020680168012256
:10068000114301606664202068702663AE7000200C
:1006900070BD0143D0E70B43D8E7000000800002A3
:1006A000FFB5054604464035687883B0202873D1ED
:1006B0000C98002814D00D98002811D02878012813
:1006C0006AD001202870FFF73DFF07460122009005
:1006D0001923D103204600F0D9FA002872D103E093
:1006E0000120400260646DE0222068704020A87004
:1006F000002666640C9860620D98608566630E98AB
:100700000090019704A90EC9204600F049FA00287C
:1007100001D02E7056E0618D3348FF2904D90122A3
:1007200022851306009006E0618D21850090208DC2
:100730000123C2B25B062046049900F091FA0097AB
:100740000022042120460E9B00F0A0FA002839D197
:100750002068406A616A0870606A401C6062208D8F
:10076000401E81B22185608D401E6085608D00280D
:100770001ED000291CD100970022802120460E9B0C
:1007800000F084FA00281DD1608DFF2805D90122D0
:1007900022851306009607E024E0608D20850096F0
:1007A000208D0123C2B25B062046049900F058FA5E
:1007B000608D0028C3D13A4620460E9900F09FFA7A
:1007C000002802D0012007B0F0BD21682020C861B8
:1007D00021684A68054B1A404A606870AE702E70F6
:1007E0000020F0E70220EEE70024008000E800FE91
:1007F000FFB5054604464035687883B0202872D19D
:100800000C98002814D00D98002811D028780128C1
:1008100069D001202870FFF795FE0746012200905D
:100820001923D103204600F031FA002871D103E0EA
:100830000120400260646CE0212068704020A870B4
:10084000002666640C9860620D98608566630E9859
:100850000090019704A90EC9204600F0D1F90028A4
:1008600001D02E7055E0608DFF2805D9FF2222852A
:1008700001231B06009606E0608D20850096208DE2
:100880000123C2B25B062046049900F0E9F93A461A
:1008900020460E9900F05EFA00283AD1606A21687D
:1008A00000788862606A401C6062608D401E6085CE
:1008B000208D401E80B22085618D00291FD0002828
:1008C0001DD100970022802120460E9B00F0DEF90A
:1008D00000281ED1608DFF2806D9FF222285012322
:1008E0001B06009607E024E0608D20850096208D91
:1008F0000123C2B25B062046049900F0B1F9608D75
:100900000028C4D13A4620460E9900F0F8F9002894
:1009100002D0012007B0F0BD20682021C16120680D
:100920004268054B1A4042606970AE702E7000201C
:10093000F0E70220EEE7000000E800FE10B586B008
:10094000044614216846FFF743FC12492068884298
:100950001DD1114C6169012080050143616161690C
:1009600001400591032000901220012101900020F8
:1009700002910491039069460848FFF711FDE1696F
:10098000012040050143E161E1690140059106B0A4
:1009900010BD000000540040001002400014004848
:1009A00002488168027889188160704754000020ED
:1009B00010B506480168102211430160032000F0C1
:1009C00007F800F027F8002010BD000000200240CA
:1009D00070B504460D4D7D202978C000FFF7FAFB65
:1009E00001460B480068FFF7F5FB00F02BF80028E4
:1009F00009D1042C07D200222146401E00F01EF827
:100A000000206C6070BD012070BD0000540000200B
:100A10006000002008B50848816901221143816106
:100A2000816911400091C26901040A43C261C06931
:100A30000840009008BD00000010024010B501F011
:100A400041FA10BD094910B5401E884201D9012064
:100A500010BD074C60610321081F01F033FA00202C
:100A6000A06107202061002010BD0000FFFFFF00F3
:100A700000E000E0FEE701688A69D243920701D4F2
:100A800000228A6200688169C943C90703D081696D
:100A90000122114381617047F7B50446006882B0B6
:100AA000816900262746C90640373546009200294D
:100AB00042DA1021C16131E00398401C2ED0FFF7CB
:100AC00041FD0099411A0398814201D8002825D19F
:100AD00020684168012292031140BA788369DB43A0
:100AE0001B0416D401239B03994212D0202A10D054
:100AF000416819434160FFF725FD009009E0FFF7C9
:100B000021FD0099401A192803D920200543012608
:100B100004E020688069C0438006F0D420688069C2
:100B20008006C00F3043C7D0002E02D1216820209C
:100B3000C86104200543012621688869C20504D5DF
:100B4000012215431202CA610126410508D5082178
:100B50000D432268C901D1610126800502D40AE053
:100B6000800506D50220054321680002C8610126E0
:100B700001E0002E0FD02046FFF77DFF206841687E
:100B8000064A11404160606C284360642020787000
:100B90000020B8703870304605B0F0BD00E800FEA7
:100BA000F8B50446164615481D46DAB20090079F70
:100BB0000023204600F054F83A462046069900F0FB
:100BC000C9F8002818D12846F5B2012809D02168B3
:100BD000300A88623A462046069900F0BBF80028A1
:100BE0000AD1206885620097002240212046069B9A
:100BF00000F04CF8002800D00120F8BD0020008053
:100C0000F8B50446164615481D46DAB2C3020090F0
:100C1000079F204600F024F83A462046069900F047
:100C200099F8002818D12846F5B2012809D0216882
:100C3000300A88623A462046069900F08BF8002870
:100C40000AD1206885620097002280212046069BF9
:100C500000F01CF8002800D00120F8BD0020008022
:100C6000890510B5890D12041143029C19430268CD
:100C70002143490050684908630D034C23439843BE
:100C80000843506010BD0000FF63FF03F8B51D4628
:100C900017460E46044626E029462046069AFFF7E8
:100CA000FBFE002801D00120F8BD681C1BD0FFF717
:100CB00049FC0699401AA84201D8002D13D120689A
:100CC0008169304688430CD00020B8420BD1616C5A
:100CD000202001436164403460700020A0702070C7
:100CE000E1E70120F1E7206881693046884304D0BC
:100CF0000020B842D0D00020F8BD0120F9E770B53F
:100D000016460D4604461EE0324629462046FFF7A9
:100D1000C3FE002801D0012070BDFFF713FC801B2B
:100D2000A84201D8002D0ED120688069C0438006FA
:100D300009D5616C2020014361644034607000205B
:100D4000A0702070E7E720688069C0438006DBD48C
:100D5000002070BD70B516460D46044620E03246B0
:100D600029462046FFF798FE002801D0012070BDDB
:100D7000681C15D0FFF7E6FB801BA84201D8002DA8
:100D80000ED120688069C043800709D5616C20209E
:100D900001436164403460700020A0702070E5E77A
:100DA00020688069C0438007D9D4002070BD00004E
:100DB00008B504494A6902434A6149690140009102
:100DC00008BD00000010024008B504494A6902430A
:100DD0004A6149690140009108BD000000100240CD
:100DE00008B504494A6902434A61496901400091D2
:100DF00008BD00000010024008B50449CA6902435A
:100E0000CA61C9690140009108BD0000001002409C
:100E100008B504498A6902438A61896901400091E1
:100E200008BD00000010024008B504498A69024369
:100E30008A6189690140009108BD000000100240EC
:100E4000F0B500244DE00123A3401A4048D04B6880
:100E5000012B01D0022B10D18E68856813465343B5
:100E60005F00DF19BD4373431D438560CD680B6888
:100E700046689E436B431E4346600F69C66813462F
:100E800053435D005D19AE435F433E43C6604E6809
:100E9000022E1FD1FF2A0ED817464A69066A9446C9
:100EA0001A467A437A431701BF1ABE4367467A430C
:100EB000164306620EE0160A324672434F697243C9
:100EC0007243BC461601B71A466ABE4367467A4368
:100ED000164346624A6806685343AE431E430660A3
:100EE000641C0A681346E340ADD10020F0BD10B584
:100EF000044600F01BFF206000F0FEFE606000F082
:100F000009FFA06010BD0000014610B500200029B7
:100F10000FD110490A6B9207920F012A0AD0022AB8
:100F200011D0032A09D000F001FF00F0E5FE00F027
:100F3000F1FE10BD00F0FAFE10BD09688907C90F67
:100F4000FAD0054810BD096A8907C90FFAD00120F7
:100F5000C00310BD0010024000127A0010B50368F3
:100F600001225B06DB0F2FD10CC98C681A434B683A
:100F700023431A43CB681A430B691A434B691A433C
:100F80008B691A430368114C23401A43026042687C
:100F90000F4B1A40CB681B0C1A430B681A43426074
:100FA00001230A68DB0208399A4204D242685B00D6
:100FB0009A431A43426001230A6A5B039A4202D1B0
:100FC000898C89B201610022104610BD4000FFFFEC
:100FD000FBF0FFFF0149086070470000600000203F
:100FE0000A7B03231B029A438B681A4301239B024B
:100FF0009A434B681A430123DB029A430B681A4356
:1010000001231B039A43CB891A4301235B039A43B1
:101010000B6949691A4301239B039A430A434264BB
:1010200000207047F0B50268194B1A4C984201D065
:10103000A04203D17025AA434D682A43164D174E8E
:10104000174F98420AD0A04208D0164CA04205D0B3
:10105000A84203D0B04201D0B84204D103242402F4
:10106000A243CC68224302608A68C2620A88826214
:10107000984205D0A84203D0B04201D0B84201D175
:101080000969016341690122114341610020F0BDFA
:10109000002C014000040040004001400044014099
:1010A0000048014000200040012910D0042910D040
:1010B000102910D0402910D0CA1FF93A05D00122BA
:1010C000920291420BD105210AE0042108E000219F
:1010D00006E0012104E0022102E0032100E00621F4
:1010E000064A1830525C10180268044BDB1D5B5C2A
:1010F000042199408A43026070470000D62200080C
:10110000012910D0042910D0102910D0402910D066
:10111000CA1FF93A05D00122920291420BD1052152
:101120000AE0042108E0002106E0012104E0022198
:1011300002E0032100E00621064A1830525C101834
:101140000268044BDB1D5B5C082199400A43026086
:1011500070470000D622000870B50B460121012B14
:1011600039D0102B3BD0FF3B5B1E3DD00F24240217
:10117000A3422ED1016A01252D03A9430162036A0E
:101180004168C46973263602B44316683602344394
:101190006E00B343166936033343AB4355682D03E2
:1011A0002B43134DA84208D0124DA84205D0124D32
:1011B000A84202D0114DA84205D10125AD03A94393
:1011C0009569AD0129434160C461D168016403623E
:1011D0000021084670BD114600F0B2FC02E0114645
:1011E00000F0F4FC0146F4E7114600F037FDF9E7A2
:1011F000002C0140004001400044014000480140F3
:1012000041680122D2029143416081680822114362
:1012100081607047FEB5044600680D4601263040E7
:1012200050D1E9686868AA690843296911430843ED
:101230002168254A114008432060A968606803229C
:1012400012039043084360606969A06812119043DB
:101250000843A0601D48844203D10020FFF754FEDC
:1012600012E01B4884420BD01A48844208D01A4826
:10127000844205D01948844202D01948844221D1C1
:101280006846FFF734FE029800281BD02968002921
:1012900018D00123AA690026DB039A420CD1400032
:1012A0004A088018FEF796FF81B20E4808400907E9
:1012B000490F0143E16005E04A081018FEF78AFF74
:1012C00080B2E0603046FEBDF369FFEF00380140B8
:1012D0000044004000480040004C004000500040E6
:1012E00000140140F0FF000008B506490A690092A9
:1012F000421C00D0401C0A69D20300D5401E0028C1
:10130000F9D108BD00E000E0F0B587B018216846CB
:10131000FEF75EFF0120C004FFF74AFD01208005B3
:10132000FFF746FD01204004FFF742FD0120800445
:10133000FFF73EFD012750487F0387624E49780042
:10134000886241004C4881624C4E0120B06202200C
:10135000B0620420B0624002B0624000B062B76286
:10136000002401250294039469464348009701959F
:101370000494FFF765FDA803009002940394694666
:10138000019504943C48FFF75BFDE803009002944C
:1013900003946946019504943748FFF751FD009581
:1013A000029403946946304601950494FFF748FD82
:1013B00002200090029403946946019504943046FB
:1013C000FFF73EFD042000900294039469460195C6
:1013D00004943046FFF734FDE80200900294039431
:1013E0006946019504943046FFF72AFD28030090D2
:1013F000029403946946019504943046FFF720FD5A
:101400000294039469463046009701950494FFF7CF
:1014100017FD102000906946049501943046FFF7AF
:101420000FFD202000906946049501943046FFF797
:1014300007FD402000906946049501943046FFF76F
:10144000FFFC802000906946049501943046FFF728
:10145000F7FC280200906946049501943046FFF796
:10146000EFFC680200906946049501943046FFF74E
:10147000E7FC07B0F0BD0000000800480004004889
:1014800010B5134811490160124941600021816083
:101490000161416181610122C161C2600162FFF7A6
:1014A000A1F8002801D0FEF778FF00210848FFF7D7
:1014B0004FF8002801D0FEF770FF00210448FFF725
:1014C0006CF8002801D0FEF768FF10BD0054004002
:1014D000A40200200B02000070B592B0282106A8DB
:1014E000FEF776FE18216846FEF772FE25480121B8
:1014F000826909030A43826182690A401092426943
:1015000049010A43426140690024084010902020AC
:10151000092605940225F60600900294039404948B
:10152000694601953046FFF78BFC802005940090BA
:10153000029403940494694601953046FFF780FCB9
:10154000032080030690FF2005300790072000024B
:10155000089001200A90099440020D940E940B907B
:101560000720094C10250F900C9506A92046FFF77F
:10157000F5FC6068A843606060680821884360608B
:1015800012B070BD001002400030014070B59AB03A
:10159000142106A8FEF71CFE20210BA8FEF718FE5A
:1015A00018216846FEF714FE182113A8FEF710FE56
:1015B00001200004FFF72CFCFF21E0316846018385
:1015C00000246320264D08900794099406A90A94E4
:1015D0002846FFF727FD2868802630432860A86842
:1015E00020490840A86001212846FFF789FD6020B6
:1015F0000B901E200C940D940E900F941094119447
:101600000BAA012112942846FFF7A6FD01212846C6
:10161000FFF74AFD6868702188436860A868B04396
:10162000A86000940194684602940473C48168140D
:1016300046000490694605962846FFF7D1FC300124
:10164000FFF7C2FB02201490179013960120189008
:101650001594169413A90448FFF7F2FB1AB070BD55
:1016600000400140F8BFFFFF00040048F0B599B00A
:10167000142106A8FEF7ACFD20210BA8FEF7A8FD5B
:1016800018216846FEF7A4FD182113A8FEF7A0FD57
:101690000127FF023846FFF7BBFBFF21E031684618
:1016A000018300246320264D08900794099406A91D
:1016B0000A942846FFF7B6FC286880263043286045
:1016C000A86820490840A860A9142846FFF718FD1B
:1016D00060200B901E200C940D940E900F9411948A
:1016E0000BAAA91412942846FFF736FDA914284620
:1016F000FFF7DAFC6868702188436860A868B04327
:10170000A86000940194684602940473C48168142C
:1017100004904000059069462846FFF761FCB0023E
:10172000FFF752FB0220139714901790189009208E
:10173000159413A91694C006FFF782FB19B0F0BDEB
:10174000002C0140F8BFFFFF70B594B0142168462B
:10175000FEF73EFD202105A8FEF73AFD18210DA851
:10176000FEF736FD25480221C2690A43C261C069FD
:10177000002508401390FF20E03069460880632070
:101780001F4C0290019503952046FFF74BFC206803
:10179000802630432060A0681A490840A0600121DB
:1017A0002046FFF7ADFC602005901E2008900695AE
:1017B000079505AA012109952046FFF7CDFC0121D7
:1017C0002046FFF771FC6068702188436060A06864
:1017D000B043A0606013FFF7F7FA40200D9002209D
:1017E0000E9011900120129009200F9510950DA9CF
:1017F000C006FFF725FB14B070BD000000100240CA
:1018000000040040F8BFFFFF30B58DB01C216846D2
:10181000FEF7DEFC182107A8FEF7DAFC01208003A2
:10182000FFF702FB01204004FFF7DAFA0120400233
:1018300007900220089003200124099009200A94AF
:101840000B9407A90C94C006FFF7FAFA1148A205F9
:1018500001681143016000211B2000F011FB1B20D7
:1018600000F002FB0C4800900020019002900390D1
:101870000C200490E003094D069069462846FFF7C6
:10188000C9FC2846FFF7BCFC2868204328600DB03F
:1018900030BD00000000014040420F000038014010
:1018A00030B58DB01C216846FEF792FC182107A8C0
:1018B000FEF78EFC012464042046FFF79DFA2046C3
:1018C000FFF78EFA042007900220089003200124DD
:1018D000099009200A940B9407A90C94C006FFF7FD
:1018E000AFFA00211C2000F0CBFA1C2000F0BCFA5B
:1018F0000A480090002001900C21094D02900390AD
:101900000491069069462846FFF784FC2846FFF7B5
:1019100077FC2868204328600DB030BD40420F009E
:101920000044004030B58DB01C216846FEF750FCE5
:10193000182107A8FEF74CFC0124A4042046FFF759
:101940005BFA2046FFF74CFA20120790022008901D
:1019500003200990012404200C900A940B9407A9F9
:101960000F48FFF76DFA00211D2000F089FA1D20B5
:1019700000F07AFA0B480090002001900C210A4DEB
:10198000029003900491069069462846FFF742FCB6
:101990002846FFF735FC2868204328600DB030BD8D
:1019A0000004004840420F000048004030B58DB0B0
:1019B0001C216846FEF70CFC182107A8FEF708FC5E
:1019C0000120C004FFF718FA01204004FFF708FACD
:1019D00002200124089003200990079404200C9011
:1019E00009200A940B9407A9C006FFF729FA0021E1
:1019F0001D2000F045FA1D2000F036FA0A4800903C
:101A0000002001900C21094D029003900491069052
:101A100069462846FFF7FEFB2846FFF7F1FB2868DA
:101A2000204328600DB030BD40420F00004C004004
:101A300030B58DB01C216846FEF7CAFB182107A8F7
:101A4000FEF7C6FB01200005FFF7D6F90120800450
:101A5000FFF7C6F90820079002200890032009909C
:101A6000012404200C900A940B9407A90F48FFF757
:101A7000E7F900211D2000F003FA1D2000F0F4F921
:101A80000B480090002001900C210A4D0290039019
:101A90000491069069462846FFF7BCFB2846FFF7ED
:101AA000AFFB2868204328600DB030BD000400481B
:101AB00040420F000050004030B58DB01C216846F8
:101AC000FEF786FB182107A8FEF782FB2020FFF710
:101AD000ABF901204004FFF783F9102007900220A2
:101AE000089003200990052001240C9009200A94F5
:101AF0000B9407A9C006FFF7A3F900211D2000F0F1
:101B0000BFF91D2000F0B0F90A48009000200190B4
:101B10000C21094D029003900491069069462846D5
:101B2000FFF778FB2846FFF76BFB28682043286007
:101B30000DB030BD40420F0000140140FEE7000030
:101B400030B5026A520852000262026A4368846930
:101B50007025A408A400AC430D682C430225AA43B9
:101B60000D692A4352084D6852002A43134DA8427A
:101B700008D0134DA84205D0124DA84202D0124DF4
:101B8000A84214D10825AA434D69AD002A43042573
:101B9000AA438D68AD002A43FF250135AB438D690B
:101BA0002B4301256D02AB43CD696D002B43436090
:101BB0008461C96841630262002030BD002C01408D
:101BC00000400140004401400048014070B5026AF5
:101BD0001025AA430262026A4368846973263602AA
:101BE000B4430E68360234432026B2430E693601F0
:101BF0003243AA434D682D012A43144DA84208D010
:101C0000134DA84205D0134DA84202D0124DA84250
:101C100015D18025AA434D69AD012A434025AA4329
:101C20008D68AD012A430125AD02AB438D69AD003E
:101C30002B430125ED02AB43CD69ED002B434360FF
:101C40008461C96881630262002070BD002C01407C
:101C500000400140004401400048014070B5026A64
:101C6000FF250135AA430262026A4368C4697026EF
:101C7000A408A400B4430E6834436E00B2430E6956
:101C800036023243AA434D682D022A43154DA8421D
:101C900008D0154DA84205D0144DA84202D0144DCD
:101CA000A84217D10125ED02AA434D69AD022A438E
:101CB0000125AD02AA438D68AD022A4301252D03FB
:101CC000AB438D692D012B4301256D03AB43CD69DA
:101CD0006D012B434360C461C968C1630262002087
:101CE00070BD0000002C0140004001400044014054
:101CF000004801407047000004494968F022114043
:101D0000034A0909515CC8407047000000100240B6
:101D1000E422000803494968034A4905490F515C18
:101D2000C840704700100240F422000810B5064871
:101D300041680C200140054805D0042903D008293A
:101D400001D100F005F810BD0010024000127A0029
:101D500010B5084C60680848E16A0907090F491C7A
:101D6000FEF738FA61680F2292041140890C891C31
:101D7000484310BD0010024000127A007047000076
:101D80000349088102482038C1690906FCD570471B
:101D9000203801400185C1690906FCD5704710B59E
:101DA000FEF7FEFD10BD000010B52A4801210268B3
:101DB0008A430A4302600168C907C90FFBD0264C59
:101DC000206801210843206020688007C00FFBD0F5
:101DD0002068F821884380210843206060687B21C7
:101DE000C90388432121C90308436060E06A0009F0
:101DF0000001E06220680121090608432060206894
:101E00008001C00FFBD06068F0218843606060688B
:101E100007210902884360606168022089088900FF
:101E2000014361600C21606808400828FBD10B4821
:101E3000FFF7D0F80320FEF7CBFD002801D072B6E3
:101E4000FEE7206B800880002063206B1021884310
:101E5000206310BD0020024000100240006CDC0234
:101E60007047704770477047002805DBC106C90EF0
:101E700001208840014908607047000000E100E04F
:101E80008307FF22DB0E9A408907090E994000283C
:101E900008DB830809489B001B1818689043084317
:101EA000186070470007000F0838830804489B003B
:101EB0001B18D86990430843D861704700E400E0DC
:101EC00000ED00E08307FF22DB0E9A408907090E30
:101ED0009940002808DB830809489B001B181868F4
:101EE00090430843186070470007000F08388308C4
:101EF00004489B001B18D86990430843D861704779
:101F000000E400E000ED00E0002802D000BF401E29
:101F1000FCD170471FB503AA00927D240A46E40055
:101F200001230146029401930348FEF7B9FB68467A
:101F3000007B04B010BD0000A402002017B583B0E0
:101F400005AA00927D240A46E4000123014602947A
:101F500001930448FEF74CFC002800D0012006B095
:101F600010BD0000A402002000B50B46024603E0AD
:101F70001078521CFFF704FF5B1EF9D200BD00B5BC
:101F80000A46034603E01846521CFFF703FF117888
:101F90000029F8D100BD0000F0B515460E4600241A
:101FA000054F06E0E0008119385D00F007F8641C79
:101FB000E4B2AC42F6D3F0BD0100002030B50022FF
:101FC0000F233F24050601D50B7000E00C7040067E
:101FD000521C000ED2B2491C082AF3D330BD0000B7
:101FE00008B5FEF7E5FCFFF7DFFEFFF78DF9FFF719
:101FF0000BFCFFF771FAFFF7A7FBFFF737FBFFF7C3
:10200000C5FAFFF73DFAFFF74BFCFFF78BFCFFF734
:10201000CDFCFFF70DFDFFF74FFD01213F484903C0
:1020200081624A0082628A0082623D4C8810A0620E
:102030004500A562A1623BA13D4800F031F93DA1F8
:102040003F4800F02DF93FA1414800F029F941A196
:10205000434800F025F943A1454800F021F945A186
:10206000474800F01DF947480168402211430160CC
:10207000454901200A6A02430A620A6802430A606B
:1020800042490A6A2A430A620A6802430A604049CE
:102090000A6A02430A620A6802430A60A0620220D6
:1020A000A0620420A0623B4E3B4D6868401C686003
:1020B000B042FAD9002201206A60A0620220A06228
:1020C0000420A06269460A7001211220FFF722FF56
:1020D000694608700121684600F0C4F869460A782C
:1020E000082002430A7001211220FFF727FF0A206F
:1020F000FFF7FAF801211220FFF70CFF694608707C
:102100000121684600F0AEF805220F21082000F0FA
:1021100087F800F05BF800F041F8C6E700080048D7
:10212000000400487374617274312E2E2E0000007A
:10213000003801407374617274322E2E2E0000003C
:10214000004400407374617274332E2E2E00000020
:10215000004800407374617274342E2E2E0000000B
:10216000004C00407374617274352E2E2E000000F6
:10217000005000407374617274362E2E2E000000E1
:10218000001401400030014000040040002C0140D8
:1021900000400140A02526004C00002007480168AF
:1021A000491C01600A2901D900210160084604493F
:1021B0004863044908640449486370474C000020A0
:1021C00000040040002C01400040014010B5114CBB
:1021D000206840210843206048220F490F48FFF73C
:1021E000DBFEFF202073A0688007C00FFBD001201A
:1021F000FFF77AF809218901074800F021F8FF204C
:102200002073A0688007C00FFBD00120FFF76CF897
:1022100010BD0000003001406400002001000020DB
:1022200030B5064C00235D005D1961552D195B1C0E
:102230006870DBB2AA70182BF5D330BD0100002006
:1022400010B50023064A07E0C45C14739468A40721
:10225000E40FFBD05B1C9BB28B42F5D310BD00009A
:102260000030014070B502460A20FFF74DFE0B4CCE
:1022700020680425A8432060206808263043206099
:102280001046FFF771FEFF204130FFF73DFE20684A
:10229000B043206020682843206070BD00380140B2
:1022A00070B504460A20FFF72FFE20680425A843D6
:1022B000206020680826304320602046FFF75FFE3C
:1022C000FF204130FFF720FE2068B04320602068E7
:1022D0002843206070BD00000000040404000008D2
:1022E00000000008000000000000000001020304DC
:1022F0000607080900000000010203041C2300086F
:102300000000002064000000FC000008802300089A
:1023100064000020F40800001801000800FF00001D
:1023200000FF000000FF00FFFFFF00FFFFFF00FFB6
:10233000FFFF000000FF000000FF000000FF00FFA3
:10234000FFFF00FFFFFF00FFFFFF000000FF000096
:1023500000FF000000FF00FFFFFF00FFFFFF00FF86
:10236000FFFF00000000000000000000000000006F
:1023700001000000040000000000000000127A00CC
:04000005080000B936
:00000001FF
